:100000000C942A000C9429090C9468090C94A709F3
:100010000C9447000C946E120C9447000C9447000B
:100020000C9447000C943B120C9447000C9408125B
:100030000C94B00D0C94D4120C9407130C94A112D0
:100040000C9447000C9447000C9447000C94470014
:100050000C94470011241FBECFE5D8E0DEBFCDBF12
:1000600010E0A0E6B0E0EAE6FBE202C005900D92E7
:10007000A639B107D9F710E0A6E9B0E001C01D929A
:10008000AE3BB107E1F70E94CE020C94B3150C947D
:100090000000DF93CF93CDB7DEB781E08093970068
:1000A00084E40E94081580E0CF91DF910895DF93EA
:1000B000CF93CDB7DEB786E40E94081580919600F5
:1000C0000E94040D64E670E080E090E00E94A801C8
:1000D000809199000E94040D87E40E94081569E050
:1000E0007DE381E00E945010809199008F5F8093A2
:1000F0009900809196000E940815809199000E94B5
:10010000081580E0CF91DF910895DF93CF93CDB7AD
:10011000DEB7E1970FB6F894DEBF0FBECDBF81E02A
:10012000898383E08A8389E490E09C838B83CE017A
:1001300001960E944D05813019F481E08AA394C094
:1001400081E00E94AB06813019F491E09AA38CC043
:10015000FE013596FCA3EBA387E790E09EA38DA359
:1001600097E09FA3EDA1FEA100808DA19EA1019625
:100170009EA38DA3EBA1FCA100828BA19CA1019663
:100180009CA38BA39FA191509FA3EFA1EE2351F7B6
:10019000CE0105960E94E609813019F4F1E0FAA338
:1001A00063C0CE010C9699A788A7E1E7F0E0FBA712
:1001B000EAA7F6E0FCA7EAA5FBA500808AA59BA517
:1001C00001969BA78AA7E8A5F9A5008288A599A50D
:1001D000019699A788A79CA591509CA7ECA5EE2312
:1001E00051F7CE010C960E94DD0D813019F4F1E03B
:1001F000FAA33AC0CE0142969EA78DA7E1E6F0E0B1
:10020000F8ABEFA7F0E1F9ABEFA5F8A900808FA557
:1002100098A9019698AB8FA7EDA5FEA500828DA5A4
:100220009EA501969EA78DA799A9915099ABE9A982
:10023000EE2351F7CE0142960E943A13813019F411
:10024000F1E0FAA311C080E00E941202813019F49B
:1002500081E08AA309C081E00E941202813019F472
:1002600091E09AA301C01AA28AA1E1960FB6F89470
:10027000DEBF0FBECDBFCF91DF910895DF93CF9347
:10028000CDB7DEB786E990E00E94221585E40E9492
:10029000081580E0CF91DF910895DF93CF93CDB71C
:1002A000DEB789E990E00E94221585E40E940815D6
:1002B00069E07DE381E00E94501080E0CF91DF9102
:1002C0000895DF93CF9300D0CDB7DEB71982CE016A
:1002D0000196BC0180E00E944402813019F481E063
:1002E0008A8330C089818F3F49F4809196008F3F87
:1002F00029F0809196008F5F8093960064E670E00D
:1003000080E090E00E94A801CE010196BC0181E04E
:100310000E944402813019F481E08A8313C08981EC
:100320008F3F49F480919600823028F080919600AA
:1003300081508093960064E670E080E090E00E9437
:10034000A8011A828A810F900F90CF91DF910895B2
:10035000DF93CF93CDB7DEB728970FB6F894DEBF03
:100360000FBECDBF6D837E838F83988719821A82DB
:100370001B821C820BC089819A81AB81BC81019652
:10038000A11DB11D89839A83AB83BC838D819E811E
:10039000AF81B8852CED30E040E050E0BC01CD01EC
:1003A0000E944B159B01AC0189819A81AB81BC8174
:1003B00082179307A407B507F0F228960FB6F894B2
:1003C000DEBF0FBECDBFCF91DF910895DF93CF93F6
:1003D00000D000D00F92CDB7DEB769837A838B83CC
:1003E0009C831D8289819A81AB81BC810097A10584
:1003F000B10511F081E08D8389819A81AB81BC8147
:100400000197A109B10989839A83AB83BC838D814C
:10041000882339F70F900F900F900F900F90CF9186
:10042000DF910895DF93CF9300D000D000D0CDB7F7
:10043000DEB78C8383E0FE013196DF01982F1D9299
:100440009A95E9F78C81882319F0A1E0AE8302C068
:10045000B2E0BE838E8189838C81882319F094E079
:100460009D8302C0A0E1AD83BD81BA831B82CE0112
:1004700001960E94060326960FB6F894DEBF0FBEC3
:10048000CDBFCF91DF910895DF93CF93CDB7DEB786
:100490002C970FB6F894DEBF0FBECDBF8D837F8340
:1004A0006E838E819F81009719F481E08C876CC0E8
:1004B0001A8219821B821C828D81882319F084E0A4
:1004C0008B8702C080E18B878D81882319F081E0C2
:1004D0008A8702C082E08A87CE010396AC016B85D1
:1004E0008A850E946304882309F04CC045C08D8131
:1004F000882319F084E0898702C080E189878D8193
:10050000882319F081E0888702C082E08887CE01C5
:100510000496AC01698588850E946304882361F58F
:100520009B818C81981729F58A818F5F8A838A81C4
:100530008A3010F18D81882F90E02C81FC01E556E6
:10054000FF4F20838C81482F50E0CA019C01220F6D
:10055000331FC9019695982F882797958795821BF9
:10056000930B840F951FEE81FF81808381E0898347
:1005700003C08C818B831A828981882309F4B7CFC9
:100580001C8602C081E08C878C852C960FB6F8946F
:10059000DEBF0FBECDBFCF91DF910895DF93CF9324
:1005A00000D0CDB7DEB70E948500813029F481E00C
:1005B00090E09A83898323C081E40E9408150E94F9
:1005C0003E01813029F481E090E09A83898317C04D
:1005D00082E40E9408150E944D01813029F481E0D7
:1005E00090E09A8389830BC083E40E9408150E94DF
:1005F00061018130E1F781E090E09A83898389810C
:100600009A810F900F90CF91DF910895DF93CF9350
:1006100000D000D00F92CDB7DEB79A838983E981ED
:10062000FA818081282F30E03D832C838C819D814D
:1006300081309105D1F12C813D81223031052CF49E
:100640008C819D81009771F099C02C813D81223071
:10065000310509F44DC08C819D818330910509F4E9
:100660006AC08CC0E981FA8182818F3F59F4AAE384
:10067000B0E0EAE3F0E09081E981FA818181892BA1
:100680008C9311C0E981FA8181818095E981FA8199
:100690008183AAE3B0E0EAE3F0E09081E981FA81A6
:1006A000818189238C931B826BC0E981FA818281CD
:1006B0008F3F59F4A7E3B0E0E7E3F0E09081E981F0
:1006C000FA818181892B8C9311C0E981FA81818122
:1006D0008095E981FA818183A7E3B0E0E7E3F0E068
:1006E0009081E981FA81818189238C931B8248C0A2
:1006F000E981FA8182818F3F59F4A4E3B0E0E4E319
:10070000F0E09081E981FA818181892B8C9311C07D
:10071000E981FA8181818095E981FA818183A4E36D
:10072000B0E0E4E3F0E09081E981FA8181818923FE
:100730008C931B8225C0E981FA8182818F3F59F415
:10074000A1E3B0E0E1E3F0E09081E981FA81818109
:10075000892B8C9311C0E981FA8181818095E9818F
:10076000FA818183A1E3B0E0E1E3F0E09081E981E7
:10077000FA81818189238C931B8202C091E09B8343
:100780008B810F900F900F900F900F90CF91DF9172
:100790000895DF93CF9300D000D000D0CDB7DEB75F
:1007A00089836A834B838981282F30E03E832D83A0
:1007B0008D819E818130910579F12D813E8122309C
:1007C00031052CF48D819E81009769F070C02D81D8
:1007D0003E8122303105C9F18D819E8183309105A2
:1007E00009F44CC064C08B818F3F49F4ABE3B0E0A7
:1007F000EBE3F0E090818A81892B8C930BC08A8196
:1008000080958A83ABE3B0E0EBE3F0E090818A81EE
:1008100089238C931C824DC08B818F3F49F4A8E3C0
:10082000B0E0E8E3F0E090818A81892B8C930BC0E3
:100830008A8180958A83A8E3B0E0E8E3F0E09081C4
:100840008A8189238C931C8234C08B818F3F49F429
:10085000A5E3B0E0E5E3F0E090818A81892B8C93F9
:100860000BC08A8180958A83A5E3B0E0E5E3F0E0E0
:1008700090818A8189238C931C821BC08B818F3F3E
:1008800049F4A2E3B0E0E2E3F0E090818A81892BB1
:100890008C930BC08A8180958A83A2E3B0E0E2E367
:1008A000F0E090818A8189238C931C8202C091E0C0
:1008B0009C838C8126960FB6F894DEBF0FBECDBF09
:1008C000CF91DF910895DF93CF93CDB7DEB7279710
:1008D0000FB6F894DEBF0FBECDBF89836A835C83F9
:1008E0004B838A81882319F421E02F8371C0898189
:1008F000282F30E03E832D838D819E8181309105AC
:1009000049F12D813E81223031052CF48D819E816B
:10091000009761F05BC02D813E812230310571F17D
:100920008D819E8183309105E9F150C0E9E3F0E0CB
:1009300090818A818923482F50E08A81282F30E0D6
:10094000CA01B9010E946A15CB01EB81FC81808349
:100950001F823EC0E6E3F0E090818A818923482F20
:1009600050E08A81282F30E0CA01B9010E946A153F
:10097000CB01EB81FC8180831F822AC0E3E3F0E09E
:1009800090818A818923482F50E08A81282F30E086
:10099000CA01B9010E946A15CB01EB81FC818083F9
:1009A0001F8216C0E0E3F0E090818A818923482FFE
:1009B00050E08A81282F30E0CA01B9010E946A15EF
:1009C000CB01EB81FC8180831F8202C091E09F8379
:1009D0008F8127960FB6F894DEBF0FBECDBFCF91A3
:1009E000DF910895DF93CF9300D000D00F92CDB761
:1009F000DEB789836A838981282F30E03D832C8389
:100A00008C819D8181309105F9F02C813D812230CE
:100A100031052CF48C819D81009761F033C02C81CD
:100A20003D8122303105D1F08C819D81833091054B
:100A3000F9F028C0ABE3B0E0EBE3F0E090818A810D
:100A400089278C931B8220C0A8E3B0E0E8E3F0E0A4
:100A500090818A8189278C931B8216C0A5E3B0E020
:100A6000E5E3F0E090818A8189278C931B820CC09A
:100A7000A2E3B0E0E2E3F0E090818A8189278C93E1
:100A80001B8202C091E09B838B810F900F900F908F
:100A90000F900F90CF91DF910895DF93CF93CDB753
:100AA000DEB72E970FB6F894DEBF0FBECDBF9D8385
:100AB0008C838C819D81009719F421E02E8741C1A0
:100AC000EC81FD818081282F30E03D872C878C854B
:100AD0009D858130910509F481C02C853D852230AA
:100AE000310509F4F1C08C859D85009709F027C177
:100AF00083E0898384E08A831B82CE0101960E9471
:100B00000603EC81FD81828193819093A400809300
:100B1000A300EC81FD818181282F30E03B872A876B
:100B20008A859B858130910521F12A853B8522307C
:100B300031052CF48A859B85009761F047C02A8592
:100B40003B852230310521F18A859B8583309105D3
:100B500071F13CC0A5E5B0E0E5E5F0E080818E7F75
:100B60008C93A5E5B0E0E5E5F0E080818D7F8C9386
:100B700030C0A5E5B0E0E5E5F0E0808181608C93D0
:100B8000A5E5B0E0E5E5F0E080818D7F8C9321C0A4
:100B9000A5E5B0E0E5E5F0E080818E7F8C93A5E5EA
:100BA000B0E0E5E5F0E0808182608C9312C0A5E5BD
:100BB000B0E0E5E5F0E0808181608C93A5E5B0E0F0
:100BC000E5E5F0E0808182608C9303C091E09E8730
:100BD000B8C081E080939D001E86B3C083E0898306
:100BE00088E08A831B82CE0101960E940603EC8175
:100BF000FD81828193819093A6008093A500EC8172
:100C0000FD818181282F30E0398728878885998563
:100C10008130910521F128853985223031052CF468
:100C200088859985009761F047C0288539852230ED
:100C3000310521F1888599858330910571F13CC09A
:100C4000A5E5B0E0E5E5F0E080818B7F8C93A5E53C
:100C5000B0E0E5E5F0E08081877F8C9330C0A5E5CA
:100C6000B0E0E5E5F0E0808184608C93A5E5B0E03C
:100C7000E5E5F0E08081877F8C9321C0A5E5B0E0B9
:100C8000E5E5F0E080818B7F8C93A5E5B0E0E5E5BC
:100C9000F0E0808188608C9312C0A5E5B0E0E5E5C6
:100CA000F0E0808184608C93A5E5B0E0E5E5F0E0BC
:100CB000808188608C9303C091E09E8742C081E070
:100CC00080939E001E863DC081E0898384E08A83F4
:100CD0001B82CE0101960E940603EC81FD81828178
:100CE00093819093A8008093A700EC81FD8181817E
:100CF000282F30E03F832E838E819F8182309105A3
:100D000031F02E813F812330310549F010C0A4E538
:100D1000B0E0E4E5F0E080818F7B8C930BC0A4E52C
:100D2000B0E0E4E5F0E0808180648C9303C031E0C2
:100D30003E8707C081E080939F001E8602C081E04D
:100D40008E878E852E960FB6F894DEBF0FBECDBF70
:100D5000CF91DF910895DF93CF9300D000D0CDB72E
:100D6000DEB789838981282F30E03C832B838B81F8
:100D70009C8181309105D1F02B813C81223031055D
:100D800031F18B819C81009799F580919D00813094
:100D900051F47894ABE5B0E0EBE5F0E0808180645D
:100DA0008C931A8227C091E09A8324C080919E0080
:100DB000813051F47894ABE5B0E0EBE5F0E0808170
:100DC00080688C931A8216C021E02A8313C0809118
:100DD0009F00813051F47894ABE5B0E0EBE5F0E0B2
:100DE000808180628C931A8205C031E03A8302C010
:100DF00081E08A838A810F900F900F900F90CF919E
:100E0000DF910895DF93CF93CDB7DEB72B970FB661
:100E1000F894DEBF0FBECDBF89836A838981282FF6
:100E200030E03B872A878A859B858130910509F4CC
:100E300075C02A853B852230310509F4D9C08A85E1
:100E40009B85009709F000C180919D00813009F0D9
:100E500062C08A81282F30E0398728878885998564
:100E60008130910529F128853985223031052CF40E
:100E700088859985009761F04BC028853985223097
:100E8000310531F1888599858330910589F140C01C
:100E9000A5E5B0E0E5E5F0E080818E7F8C93A5E5E7
:100EA000B0E0E5E5F0E080818D7F8C931F82CEC0BD
:100EB000A5E5B0E0E5E5F0E0808181608C93A5E5F3
:100EC000B0E0E5E5F0E080818D7F8C931F82BEC0AD
:100ED000A5E5B0E0E5E5F0E080818E7F8C93A5E5A7
:100EE000B0E0E5E5F0E0808182608C931F82AEC0C7
:100EF000A5E5B0E0E5E5F0E0808181608C93A5E5B3
:100F0000B0E0E5E5F0E0808182608C931F829EC0B6
:100F100091E09F839BC021E02F8398C080919E0029
:100F2000813009F062C08A81282F30E03E832D8312
:100F30008D819E818130910529F12D813E81223064
:100F400031052CF48D819E81009761F04BC02D817D
:100F50003E812230310531F18D819E8183309105B2
:100F600089F140C0A5E5B0E0E5E5F0E080818B7F48
:100F70008C93A5E5B0E0E5E5F0E08081877F8C9378
:100F80001F8264C0A5E5B0E0E5E5F0E08081846003
:100F90008C93A5E5B0E0E5E5F0E08081877F8C9358
:100FA0001F8254C0A5E5B0E0E5E5F0E080818B7FCD
:100FB0008C93A5E5B0E0E5E5F0E0808188608C9356
:100FC0001F8244C0A5E5B0E0E5E5F0E080818460E3
:100FD0008C93A5E5B0E0E5E5F0E0808188608C9336
:100FE0001F8234C091E09F8331C021E02F832EC047
:100FF00080919F00813029F58A81282F30E03C8341
:101000002B838B819C818230910531F02B813C8137
:101010002330310551F012C0A4E5B0E0E4E5F0E082
:1010200080818F7B8C931F8211C0A4E5B0E0E4E542
:10103000F0E0808180648C931F8208C031E03F83A0
:1010400005C081E08F8302C091E09F838F812B9642
:101050000FB6F894DEBF0FBECDBFCF91DF910895DC
:10106000DF93CF93CDB7DEB72C970FB6F894DEBFE2
:101070000FBECDBF89837B836A838981282F30E0AF
:101080003E832D838D819E818130910599F12D8143
:101090003E812230310509F452C08D819E81009736
:1010A00009F077C080919D00813009F5EAE5F0E014
:1010B0008081882F90E08074907098878F832F8133
:1010C000388533232CF48F819885CF9698878F832A
:1010D0008F819885082E892F000C881F990B000C92
:1010E000881F991FEA81FB8180831C8254C091E094
:1010F0009C8351C080919E008130F1F4EAE5F0E0DC
:101100008081882F90E0807890709A8789872985E0
:101110003A85332334F489859A8581589F4F9A877D
:10112000898789859A85880F892F881F990BEA817D
:10113000FB8180831C822FC091E09C832CC0809116
:101140009F00813019F5EAE5F0E08081882F90E07A
:10115000807290709C878B872B853C8533232CF481
:101160008B859C854F969C878B878B859C859595D9
:101170008795959587959595879595958795959557
:101180008795EA81FB8180831C8205C091E09C8366
:1011900002C021E02C838C812C960FB6F894DEBF20
:1011A0000FBECDBFCF91DF910895DF93CF9300D0D5
:1011B00000D0CDB7DEB789838981282F30E03C830A
:1011C0002B838B819C8181309105C9F02B813C81DF
:1011D0002230310521F18B819C81009781F580912E
:1011E0009D00813049F4ABE5B0E0EBE5F0E08081B3
:1011F0008F7B8C931A8225C091E09A8322C08091C4
:101200009E00813049F4ABE5B0E0EBE5F0E0808191
:101210008F778C931A8215C021E02A8312C08091A7
:101220009F00813049F4ABE5B0E0EBE5F0E0808170
:101230008F7D8C931A8205C031E03A8302C081E031
:101240008A838A810F900F900F900F90CF91DF913A
:1012500008951F920F920FB60F9211242F933F9370
:101260004F935F936F937F938F939F93AF93BF93AE
:10127000EF93FF93DF93CF930F92CDB7DEB78091BB
:10128000A3009091A400009761F081E08983E09130
:10129000A300F091A4000995898389818093A0001F
:1012A00003C081E08093A0000F90CF91DF91FF9168
:1012B000EF91BF91AF919F918F917F916F915F91CE
:1012C0004F913F912F910F900FBE0F901F90189547
:1012D0001F920F920FB60F9211242F933F934F93AB
:1012E0005F936F937F938F939F93AF93BF93EF938E
:1012F000FF93DF93CF930F92CDB7DEB78091A50018
:101300009091A600009761F081E08983E091A500AB
:10131000F091A6000995898389818093A10003C07B
:1013200081E08093A1000F90CF91DF91FF91EF9129
:10133000BF91AF919F918F917F916F915F914F91ED
:101340003F912F910F900FBE0F901F9018951F92F5
:101350000F920FB60F9211242F933F934F935F93E9
:101360006F937F938F939F93AF93BF93EF93FF936D
:10137000DF93CF930F92CDB7DEB78091A700909106
:10138000A800009761F081E08983E091A700F091C7
:10139000A8000995898389818093A20003C081E018
:1013A0008093A2000F90CF91DF91FF91EF91BF91B9
:1013B000AF919F918F917F916F915F914F913F91ED
:1013C0002F910F900FBE0F901F901895DF93CF9322
:1013D000CDB7DEB7CB54D0400FB6F894DEBF0FBE0A
:1013E000CDBF9A8F898F898D9A8D009719F421E04E
:1013F0002BA3FFC2ADE2B0E0EDE2F0E080818064BB
:101400008C93E98DFA8D8081813009F0A0C0ADE226
:10141000B0E0EDE2F0E0808180618C93CE01019636
:101420009DA38CA3E3E9F0E0FFA3EEA3F3E0F8A70C
:10143000EEA1FFA100802EA13FA12F5F3F4F3FA350
:101440002EA3ECA1FDA100822CA13DA12F5F3F4F57
:101450003DA32CA338A5315038A788A5882341F790
:10146000CE0101960E940603FE013496FAA7E9A771
:1014700020E930E03CA72BA733E03DA7EBA5FCA576
:1014800000802BA53CA52F5F3F4F3CA72BA7E9A5CC
:10149000FAA5008229A53AA52F5F3F4F3AA729A7B1
:1014A0003DA531503DA78DA5882341F7CE01049677
:1014B0000E940603FE013796FFA7EEA72DE830E055
:1014C00039AB28AB33E03AABE8A9F9A9008028A9E9
:1014D00039A92F5F3F4F39AB28ABEEA5FFA500829E
:1014E0002EA53FA52F5F3F4F3FA72EA73AA931500A
:1014F0003AAB8AA9882341F7CE0107960E940603DA
:10150000FE013A96FCABEBAB2AE830E03EAB2DABEC
:1015100033E03FABEDA9FEA900802DA93EA92F5FC6
:101520003F4F3EAB2DABEBA9FCA900822BA93CA9F8
:101530002F5F3F4F3CAB2BAB3FA931503FAB8FA947
:10154000882341F7CE010A960E940603E9C0E98D7F
:10155000FA8D8081882309F0E0C0ADE2B0E0EDE2D1
:10156000F0E080818F7E8C93FE013D96F9AFE8AF6D
:1015700027E830E03BAF2AAF33E03CAFEAADFBAD4C
:1015800000802AAD3BAD2F5F3F4F3BAF2AAFE8ADA8
:10159000F9AD008228AD39AD2F5F3F4F39AF28AF8D
:1015A0003CAD31503CAF8CAD882341F7CE010D9658
:1015B0000E940603FE017096FEAFEDAF24E830E016
:1015C00021963FAF2EAF219733E022963FAF22976F
:1015D0002196EEADFFAD2197008021962EAD3FAD57
:1015E00021972F5F3F4F21963FAF2EAF2197EDAD53
:1015F000FEAD00822DAD3EAD2F5F3F4F3EAF2DAF14
:1016000022963FAD2297315022963FAF22972296E5
:101610008FAD22978823E1F6CE0140960E94060303
:10162000FE0173962496FFAFEEAF249721E830E0D9
:1016300026963FAF2EAF269733E027963FAF2797EA
:101640002696EEADFFAD2697008026962EAD3FADD7
:1016500026972F5F3F4F26963FAF2EAF26972496B3
:10166000EEADFFAD2497008224962EAD3FAD2497BA
:101670002F5F3F4F24963FAF2EAF249727963FAD65
:101680002797315027963FAF279727968FAD2797FB
:101690008823B1F6CE0143960E940603FE0176969A
:1016A0002996FFAFEEAF29972EE730E02B963FAF9C
:1016B0002EAF2B9733E02C963FAF2C972B96EEADA9
:1016C000FFAD2B9700802B962EAD3FAD2B972F5F54
:1016D0003F4F2B963FAF2EAF2B972996EEADFFAD28
:1016E0002997008229962EAD3FAD29972F5F3F4F56
:1016F00029963FAF2EAF29972C963FAD2C973150AE
:101700002C963FAF2C972C968FAD2C978823B1F653
:10171000CE0146960E94060303C091E09BA369C1D7
:10172000E98DFA8D8281E82FF0E0FAA3E9A329A1DF
:101730003AA12115310569F089A19AA1813091055D
:1017400081F4ADE2B0E0EDE2F0E0808180628C9364
:101750000BC0ADE2B0E0EDE2F0E080818F7D8C93D4
:1017600003C091E09BA345C1E98DFA8D8381E82FE9
:10177000F0E0F8A3EF8F2F8D38A12115310569F026
:101780008F8D98A18130910581F4ADE2B0E0EDE25A
:10179000F0E0808180688C930BC0ADE2B0E0EDE2B8
:1017A000F0E080818F778C9303C091E09BA321C1EF
:1017B000E98DFA8D8181E82FF0E0FE8FED8F2D8D80
:1017C0003E8D21303105E1F08D8D9E8D8230910569
:1017D0002CF4ED8DFE8D309761F02AC02D8D3E8D5D
:1017E00022303105A9F08D8D9E8D83309105C1F099
:1017F0001FC0EDE2F0E0ADE2B0E08C9180831BC051
:10180000ADE2B0E0EDE2F0E0808180618C9313C046
:10181000ADE2B0E0EDE2F0E0808180628C930BC03D
:10182000ADE2B0E0EDE2F0E0808180638C9303C034
:1018300091E09BA3DEC0E98DFA8D8481E82FF0E072
:10184000FC8FEB8F2B8D3C8D2330310509F43EC08E
:101850008B8D9C8D843091058CF4EB8DFC8DE1306B
:10186000F105F1F02B8D3C8D223031050CF086C056
:101870008B8D9C8D009709F46BC0ACC0EB8DFC8DFB
:10188000E530F105C9F12B8D3C8D253031050CF487
:101890008BC08B8D9C8D8630910509F443C09AC016
:1018A000ADE2B0E0EDE2F0E080818E7F8C93ADE2BE
:1018B000B0E0EDE2F0E080818D7F8C93AEE2B0E0AD
:1018C000EEE2F0E080818E7F8C9387C0ADE2B0E0E5
:1018D000EDE2F0E0808181608C93ADE2B0E0EDE27A
:1018E000F0E080818D7F8C93AEE2B0E0EEE2F0E03C
:1018F00080818E7F8C9371C0ADE2B0E0EDE2F0E0CC
:1019000080818E7F8C93ADE2B0E0EDE2F0E08081EB
:1019100082608C93AEE2B0E0EEE2F0E080818E7FF8
:101920008C935BC0ADE2B0E0EDE2F0E080818160DD
:101930008C93ADE2B0E0EDE2F0E0808182608C93C8
:10194000AEE2B0E0EEE2F0E080818E7F8C9345C0A5
:10195000ADE2B0E0EDE2F0E080818E7F8C93ADE20D
:10196000B0E0EDE2F0E080818D7F8C93AEE2B0E0FC
:10197000EEE2F0E0808181608C932FC0ADE2B0E0B8
:10198000EDE2F0E0808181608C93ADE2B0E0EDE2C9
:10199000F0E080818D7F8C93AEE2B0E0EEE2F0E08B
:1019A000808181608C9319C0ADE2B0E0EDE2F0E09F
:1019B00080818E7F8C93ADE2B0E0EDE2F0E080813B
:1019C00082608C93AEE2B0E0EEE2F0E08081816074
:1019D0008C9303C091E09BA30CC0E98DFA8D8581A7
:1019E00096819093AA008093A90081E08093AB0038
:1019F0001BA28BA1C55BDF4F0FB6F894DEBF0FBEF5
:101A0000CDBFCF91DF910895DF93CF9300D000D069
:101A1000CDB7DEB78B831A8219828091AB008130FB
:101A200019F021E02C832EC040E060E181E00E94AB
:101A3000C903EFE2F0E08B81808305C089819A8140
:101A400001969A838983EEE2F0E08081882F90E00E
:101A500080789070805890408038910530F089816E
:101A60009A8127E28031920749F74FEF60E181E0E8
:101A70000E94C903AEE2B0E0EEE2F0E080818F7731
:101A80008C931C828C810F900F900F900F90CF91B0
:101A9000DF910895DF93CF9300D00F92CDB7DEB7DB
:101AA0009A8389838091AB00813019F081E08B8328
:101AB0001AC0EEE2F0E08081882F90E0807890708C
:101AC0008058904080389105A0F7AEE2B0E0EEE299
:101AD000F0E080818F778C93EFE2F0E08081E98104
:101AE000FA8180831B828B810F900F900F90CF9192
:101AF000DF910895DF93CF9300D000D00F92CDB740
:101B0000DEB79A8389838091AB00813019F081E040
:101B10008B831DC0EEE2F0E08081882F90E080781A
:101B200090709D838C838C819D81992334F48C816A
:101B30009D8181589F4F9D838C838C819D81880FCF
:101B4000892F881F990BE981FA8180831B828B8101
:101B50000F900F900F900F900F90CF91DF910895FD
:101B60001F920F920FB60F9211242F933F934F9312
:101B70005F936F937F938F939F93AF93BF93EF93F5
:101B8000FF93DF93CF93CDB7DEB7E091A900F0913B
:101B9000AA000995CF91DF91FF91EF91BF91AF918D
:101BA0009F918F917F916F915F914F913F912F9175
:101BB0000F900FBE0F901F901895DF93CF93CDB766
:101BC000DEB765970FB6F894DEBF0FBECDBF9A8320
:101BD000898389819A81009719F421E02D8B56C25F
:101BE000E981FA818081882F90E0E981FA8124815E
:101BF0003581880F991FFC01E455FF4F3183208305
:101C0000E981FA818081282F30E03C8B2B8B8B89F6
:101C10009C898130910509F4BFC02B893C89223011
:101C2000310509F489C18B899C89009709F02CC280
:101C3000E981FA818181282F30E03A8B298B8989CB
:101C40009A898130910569F029893A8922303105D4
:101C500069F089899A89009771F4E3E5F0E01082D0
:101C60000DC0E3E5F0E087E0808308C0E3E5F0E045
:101C700086E0808303C091E09D8B08C2E981FA81F0
:101C80008281282F30E0388B2F878F8598890097A5
:101C900031F02F8538892130310581F01EC0A9E54A
:101CA000B0E0E9E5F0E080818E7F8C93A9E5B0E0BB
:101CB000E9E5F0E080818D7F8C9312C0A9E5B0E06A
:101CC000E9E5F0E0808181608C93A9E5B0E0E9E589
:101CD000F0E080818D7F8C9303C031E03D8BD6C1D5
:101CE000E981FA818181882309F044C0E981FA8180
:101CF0008381882309F43EC0E981FA818381282FFA
:101D000030E03E872D878D859E858430910519F1C1
:101D10002D853E85253031055CF48D859E8581308D
:101D2000910589F02D853E852230310581F01FC057
:101D30008D859E858630910591F02D853E852730D5
:101D4000310589F014C081E08093B20020C082E0A8
:101D50008093B2001CC083E08093B20018C084E07E
:101D60008093B20014C085E08093B20010C031E0CF
:101D70003D8B8CC1E981FA818181873041F0E98115
:101D8000FA818181863019F081E08D8B7FC181E0FD
:101D90008093B5001D8A7AC1E981FA818181282F5B
:101DA00030E03C872B878B859C858130910571F0D5
:101DB0002B853C852230310581F08B859C850097F1
:101DC00099F4EEE4F0E01182108211C0EEE4F0E04C
:101DD00087E090E0918380830AC0EEE4F0E086E043
:101DE00090E09183808303C091E09D8B4FC1E98196
:101DF000FA818281282F30E03A87298789859A8560
:101E0000009731F029853A8521303105F1F03AC04B
:101E1000A9E5B0E0E9E5F0E080818B7F8C93A9E54E
:101E2000B0E0E9E5F0E08081877F8C93A9E5B0E040
:101E3000E9E5F0E080818F7E8C93A9E5B0E0E9E5EB
:101E4000F0E080818F7D8C9320C0A9E5B0E0E9E5CA
:101E5000F0E0808184608C93A9E5B0E0E9E5F0E0F2
:101E60008081877F8C93A9E5B0E0E9E5F0E080818F
:101E70008F7E8C93A9E5B0E0E9E5F0E080818F7D6D
:101E80008C9303C031E03D8B01C1E981FA818381EC
:101E9000882319F481E08D8BF9C0E981FA81818171
:101EA000882309F044C0E981FA818381882309F4F9
:101EB0003EC0E981FA818381282F30E038872F8363
:101EC0008F8198858430910519F12F8138852530CF
:101ED00031055CF48F8198858130910589F02F81DF
:101EE00038852230310581F01FC08F81988586307A
:101EF000910591F02F8138852730310589F014C084
:101F000081E08093B30013C082E08093B3000FC0E0
:101F100083E08093B3000BC084E08093B30007C0DC
:101F200085E08093B30003C031E03D8BAFC081E01A
:101F30008093B6001D8AAAC0E981FA818181882F29
:101F400090E00097A1F4E5E4F0E01082E981FA81E5
:101F50008281282F30E03E832D838D819E810097E2
:101F600049F02D813E812130310599F021C031E0C9
:101F70003D8B8CC0A9E5B0E0E9E5F0E080818F7B86
:101F80008C93A9E5B0E0E9E5F0E080818F778C9350
:101F900012C0A9E5B0E0E9E5F0E0808180648C93AF
:101FA000A9E5B0E0E9E5F0E080818F778C9303C08C
:101FB00081E08D8B6BC0E981FA818381882319F4DC
:101FC00091E09D8B63C0E981FA818181882309F0CA
:101FD00056C0E981FA818381882309F450C0E981E0
:101FE000FA818381282F30E03C832B838B819C8175
:101FF0008430910589F12B813C812530310584F4B1
:102000008B819C8182309105F9F02B813C812330BA
:102010003105F4F48B819C818130910589F02CC0CD
:102020002B813C8126303105F9F08B819C818630F3
:102030009105B4F02B813C8127303105C9F01CC0DB
:1020400081E08093B4001BC082E08093B40017C08D
:1020500083E08093B40013C084E08093B4000FC089
:1020600085E08093B4000BC086E08093B40007C085
:1020700087E08093B40003C031E03D8B07C081E06E
:102080008093B7001D8A02C081E08D8B8D89659693
:102090000FB6F894DEBF0FBECDBFCF91DF9108958C
:1020A000DF93CF9300D000D000D0CDB7DEB78983C7
:1020B0007B836A838981282F30E03E832D838D8145
:1020C0009E818130910509F12D813E8122303105BB
:1020D000E1F18D819E81009709F04EC08091B5009D
:1020E000882319F491E09C8349C0E2E5F0E08A81FD
:1020F00080958083A3E5B0E0E3E5F0E090818091F6
:10210000B200892B8C931C8239C08091B600882341
:1021100019F421E02C8332C0ECE4F0E08A819B8149
:102120008095909591838083AEE4B0E0EEE4F0E09A
:10213000208131818091B300882F90E0822B932BF6
:1021400011969C938E931C8219C08091B7008823AE
:1021500019F431E03C8312C0E4E4F0E08A81809518
:102160008083A5E4B0E0E5E4F0E090818091B400E4
:10217000892B8C931C8202C081E08C838C812696F3
:102180000FB6F894DEBF0FBECDBFCF91DF9108959B
:10219000DF93CF9300D000D0CDB7DEB7898389819C
:1021A000282F30E03C832B838B819C8181309105EB
:1021B000C9F02B813C812230310539F18B819C8122
:1021C000009799F58091B500882319F491E09A83DE
:1021D0002EC0A3E5B0E0E3E5F0E08081887F8C933A
:1021E0001A8225C08091B600882319F421E02A8341
:1021F0001EC0AEE4B0E0EEE4F0E080819181887F23
:1022000011969C938E931A8212C08091B7008823F6
:1022100019F431E03A830BC0A5E4B0E0E5E4F0E066
:102220008081887F8C931A8202C081E08A838A81B0
:102230000F900F900F900F90CF91DF910895DF9343
:10224000CF93CDB7DEB72A970FB6F894DEBF0FBE97
:10225000CDBF89837B836A838981282F30E03E83C9
:102260002D838D819E8181309105D1F02D813E811C
:1022700022303105D1F18D819E81009709F05EC039
:102280008091B500882319F491E09C8359C0E8E55A
:10229000F0E080818170EA81FB8180831C8250C0E4
:1022A0008091B600882319F421E02C8349C0E8E529
:1022B000F0E08081882F90E08470907098878F8301
:1022C0008F819885992334F42F8138852D5F3F4F76
:1022D00038872F838F8198859595879595958795D4
:1022E000EA81FB8180831C822BC08091B700882308
:1022F00019F431E03C8324C0E8E5F0E08081882FC8
:1023000090E0807490709A87898789859A8599234F
:1023100034F429853A85215C3F4F3A87298789859E
:102320009A85082E892F000C881F990B000C881F96
:10233000991FEA81FB8180831C8202C031E03C83CB
:102340008C812A960FB6F894DEBF0FBECDBFCF9119
:10235000DF910895DF93CF9300D000D000D0CDB7A8
:10236000DEB789837B836A838981282F30E03E83AF
:102370002D838D819E8181309105D9F02D813E8103
:102380002230310539F18D819E810097A9F5809128
:10239000B500882319F491E09C8330C0E2E5F0E0B9
:1023A0008081882F90E0EA81FB81918380831C8269
:1023B00025C08091B600882319F421E02C831EC02B
:1023C000ECE4F0E080819181EA81FB81918380835C
:1023D0001C8214C08091B700882319F431E03C833B
:1023E0000DC0E4E4F0E08081882F90E0EA81FB8179
:1023F000918380831C8202C081E08C838C8126962D
:102400000FB6F894DEBF0FBECDBFCF91DF91089518
:102410001F920F920FB60F9211242F933F934F9359
:102420005F936F937F938F939F93AF93BF93EF933C
:10243000FF93DF93CF93CDB7DEB78091AC0090913F
:10244000AD00009729F0E091AC00F091AD00099546
:10245000CF91DF91FF91EF91BF91AF919F918F91BC
:102460007F916F915F914F913F912F910F900FBE90
:102470000F901F9018951F920F920FB60F92112474
:102480002F933F934F935F936F937F938F939F937C
:10249000AF93BF93EF93FF93DF93CF93CDB7DEB7A7
:1024A0008091AE009091AF00009729F0E091AE00CE
:1024B000F091AF000995CF91DF91FF91EF91BF911E
:1024C000AF919F918F917F916F915F914F913F91CC
:1024D0002F910F900FBE0F901F9018951F920F9283
:1024E0000FB60F9211242F933F934F935F936F93E7
:1024F0007F938F939F93AF93BF93EF93FF93DF935C
:10250000CF93CDB7DEB78091B0009091B100009726
:1025100029F0E091B000F091B1000995CF91DF91E1
:10252000FF91EF91BF91AF919F918F917F916F91AB
:102530005F914F913F912F910F900FBE0F901F9081
:1025400018951F920F920FB60F9211242F933F935D
:102550004F935F936F937F938F939F93AF93BF93AB
:10256000EF93FF93DF93CF93CDB7DEB78091B800A1
:102570009091B900009729F0E091B800F091B9006E
:102580000995CF91DF91FF91EF91BF91AF919F910D
:102590008F917F916F915F914F913F912F910F900C
:1025A0000FBE0F901F9018951F920F920FB60F92AB
:1025B00011242F933F934F935F936F937F938F9348
:1025C0009F93AF93BF93EF93FF93DF93CF93CDB7D9
:1025D000DEB78091BA009091BB00009729F0E0919E
:1025E000BA00F091BB000995CF91DF91FF91EF9177
:1025F000BF91AF919F918F917F916F915F914F911B
:102600003F912F910F900FBE0F901F9018951F9222
:102610000F920FB60F9211242F933F934F935F9316
:102620006F937F938F939F93AF93BF93EF93FF939A
:10263000DF93CF93CDB7DEB78091BC009091BD0002
:10264000009729F0E091BC00F091BD000995CF9171
:10265000DF91FF91EF91BF91AF919F918F917F910A
:102660006F915F914F913F912F910F900FBE0F90FF
:102670001F901895CF92DF92EF92FF920F931F93C6
:10268000DF93CF93CDB7DEB72C970FB6F894DEBFAC
:102690000FBECDBF9987888788859985009719F4E3
:1026A00021E02C87A5C183E0FE013296DF01282FAF
:1026B0001D922A95E9F783E0FE013596DF01282F68
:1026C0001D922A95E9F780E88983E885F98581815B
:1026D000A82FB0E0BB87AA87EA85FB85E130F1052A
:1026E000C9F12A853B852230310509F460C08A850D
:1026F0009B85009709F09AC081E08B8383E08A83F1
:102700008FEF8C83CE0102960E940603E885F9853F
:102710008081882381F0AAE2B0E0EAE2F0E08081E3
:1027200080648C93E885F985828593859093B900C0
:102730008093B80007C0AAE2B0E0EAE2F0E080814E
:102740008F7B8C93AAE2B0E0EAE2F0E080818860BF
:102750008C936FC082E08E8383E08D831F82CE01D5
:1027600005960E940603E885F9858081882381F01B
:10277000AAE2B0E0EAE2F0E0808180688C93E8852C
:10278000F985848595859093BB008093BA0007C036
:10279000AAE2B0E0EAE2F0E080818F778C93AAE2CF
:1027A000B0E0EAE2F0E0808180618C9342C081E099
:1027B0008B8383E08A838FEF8C83CE0102960E9405
:1027C000060382E08E8383E08D831F82CE0105960F
:1027D0000E940603E885F98580818823C1F0AAE27A
:1027E000B0E0EAE2F0E08081806C8C93E885F985C6
:1027F000848595859093BB008093BA00E885F98520
:10280000828593859093B9008093B80007C0AAE2AF
:10281000B0E0EAE2F0E080818F738C93AAE2B0E04E
:10282000EAE2F0E0808188618C9303C091E09C87AC
:10283000DFC0E885F9858281813041F4ABE2B0E008
:10284000EBE2F0E0808182608C9310C0E885F9852E
:102850008281882341F4ABE2B0E0EBE2F0E08081DA
:102860008D7F8C9303C0A1E0AC87C2C0CC24DD2453
:102870006894C6F8E885F985E680F78000851185BB
:10288000E885F9858281882F90E001969C01442794
:1028900037FD4095542F80E190E0A0E0B0E0BC010E
:1028A000CD010E947D15DA01C9019C01AD01C8016D
:1028B000B7010E944B159B01AC0180E094E2A4EFAC
:1028C000B0E0BC01CD010E947D15DA01C90101977C
:1028D000A109B109892F9A2FAB2FBB27F60180835D
:1028E0000F2EF9E2CF2EDD24F02DE885F985E68064
:1028F000F78000851185E885F9858281882F90E031
:1029000001969C01442737FD4095542F80E190E0CB
:10291000A0E0B0E0BC01CD010E947D15DA01C90143
:102920009C01AD01C801B7010E944B159B01AC0190
:1029300080E094E2A4EFB0E0BC01CD010E947D15DF
:10294000DA01C9018150D6018C93E885F98583812C
:10295000882F90E0880F991F880F991F880F991F63
:10296000282FE885F9858481882F90E082959295BB
:10297000907F9827807F9827922F982B8981892B89
:102980008983E885F9858581882F90E08C7F907018
:10299000880F991F982F8981892B8983E885F9856C
:1029A0008581873041F4AAE2B0E0EAE2F0E080817C
:1029B00084608C9307C0AAE2B0E0EAE2F0E0808194
:1029C0008B7F8C93E885F98586859785009779F0CC
:1029D000AAE2B0E0EAE2F0E0808180628C93E885D0
:1029E000F985868597859093BD008093BC001C86F1
:1029F0008C852C960FB6F894DEBF0FBECDBFCF915D
:102A0000DF911F910F91FF90EF90DF90CF9008958D
:102A1000DF93CF930F92CDB7DEB78983EBE2F0E07F
:102A20008081882F90E0807290704F968F3391054F
:102A3000A8F3ECE2F0E08981808380E00F90CF91F1
:102A4000DF910895DF93CF9300D00F92CDB7DEB71B
:102A50009A83898389819A81009719F481E08B8315
:102A600013C0EBE2F0E08081882F90E080789070D6
:102A700081589F4F8F3F9105A0F3ECE2F0E08081F9
:102A8000E981FA8180831B828B810F900F900F90D8
:102A9000CF91DF910895629FD001739FF001829FD3
:102AA000E00DF11D649FE00DF11D929FF00D839FDD
:102AB000F00D749FF00D659FF00D9927729FB00D7A
:102AC000E11DF91F639FB00DE11DF91FBD01CF018D
:102AD0001124089597FB092E07260AD077FD04D00C
:102AE0002ED006D000201AF4709561957F4F08957E
:102AF000F6F7909581959F4F0895A1E21A2EAA1B93
:102B0000BB1BFD010DC0AA1FBB1FEE1FFF1FA2179D
:102B1000B307E407F50720F0A21BB30BE40BF50B9A
:102B2000661F771F881F991F1A9469F76095709523
:102B3000809590959B01AC01BD01CF010895AA1B22
:102B4000BB1B51E107C0AA1FBB1FA617B70710F098
:102B5000A61BB70B881F991F5A95A9F780959095CA
:0A2B6000BC01CD010895F894FFCFE9
:102B6A0001000200000003802500000000000000B0
:102B7A0000010001075700010001000600000110D2
:102B8A00000180000120000140FF0110FF0180FFC9
:062B9A000120FF014000D4
:00000001FF
